{
  "contractName": "MedicalRecord",
  "abi": [
    {
      "anonymous": false,
      "inputs": [
        {
          "indexed": true,
          "internalType": "uint256",
          "name": "id",
          "type": "uint256"
        },
        {
          "indexed": false,
          "internalType": "string",
          "name": "ipfsHash",
          "type": "string"
        },
        {
          "indexed": false,
          "internalType": "address",
          "name": "owner",
          "type": "address"
        }
      ],
      "name": "RecordAdded",
      "type": "event"
    },
    {
      "inputs": [],
      "name": "recordCount",
      "outputs": [
        {
          "internalType": "uint256",
          "name": "",
          "type": "uint256"
        }
      ],
      "stateMutability": "view",
      "type": "function",
      "constant": true
    },
    {
      "inputs": [
        {
          "internalType": "uint256",
          "name": "",
          "type": "uint256"
        }
      ],
      "name": "records",
      "outputs": [
        {
          "internalType": "string",
          "name": "ipfsHash",
          "type": "string"
        },
        {
          "internalType": "address",
          "name": "owner",
          "type": "address"
        }
      ],
      "stateMutability": "view",
      "type": "function",
      "constant": true
    },
    {
      "inputs": [
        {
          "internalType": "string",
          "name": "_ipfsHash",
          "type": "string"
        }
      ],
      "name": "addRecord",
      "outputs": [],
      "stateMutability": "nonpayable",
      "type": "function"
    }
  ],
  "bytecode": "0x608060405234801561001057600080fd5b5061070d806100206000396000f3fe608060405234801561001057600080fd5b50600436106100415760003560e01c80633446106714610046578063900407bc14610077578063d81aa8c414610095575b600080fd5b610060600480360381019061005b91906103e1565b6100b1565b60405161006e929190610461565b60405180910390f35b61007f61017d565b60405161008c9190610491565b60405180910390f35b6100af60048036038101906100aa91906103a0565b610183565b005b60006020528060005260406000206000915090508060000180546100d4906105a7565b80601f0160208091040260200160405190810160405280929190818152602001828054610100906105a7565b801561014d5780601f106101225761010080835404028352916020019161014d565b820191906000526020600020905b81548152906001019060200180831161013057829003601f168201915b5050505050908060010160009054906101000a900473ffffffffffffffffffffffffffffffffffffffff16905082565b60015481565b60405180604001604052808281526020013373ffffffffffffffffffffffffffffffffffffffff16815250600080600154815260200190815260200160002060008201518160000190805190602001906101de929190610280565b5060208201518160010160006101000a81548173ffffffffffffffffffffffffffffffffffffffff021916908373ffffffffffffffffffffffffffffffffffffffff1602179055509050506001547fb339640a457cca1242abeb1160005e7a41a1b3f0fa09631467e08372c7c0ad9e823360405161025d929190610461565b60405180910390a260016000815480929190610278906105d9565b919050555050565b82805461028c906105a7565b90600052602060002090601f0160209004810192826102ae57600085556102f5565b82601f106102c757805160ff19168380011785556102f5565b828001600101855582156102f5579182015b828111156102f45782518255916020019190600101906102d9565b5b5090506103029190610306565b5090565b5b8082111561031f576000816000905550600101610307565b5090565b6000610336610331846104dd565b6104ac565b90508281526020810184848401111561034e57600080fd5b610359848285610565565b509392505050565b600082601f83011261037257600080fd5b8135610382848260208601610323565b91505092915050565b60008135905061039a816106c0565b92915050565b6000602082840312156103b257600080fd5b600082013567ffffffffffffffff8111156103cc57600080fd5b6103d884828501610361565b91505092915050565b6000602082840312156103f357600080fd5b60006104018482850161038b565b91505092915050565b61041381610529565b82525050565b60006104248261050d565b61042e8185610518565b935061043e818560208601610574565b610447816106af565b840191505092915050565b61045b8161055b565b82525050565b6000604082019050818103600083015261047b8185610419565b905061048a602083018461040a565b9392505050565b60006020820190506104a66000830184610452565b92915050565b6000604051905081810181811067ffffffffffffffff821117156104d3576104d2610680565b5b8060405250919050565b600067ffffffffffffffff8211156104f8576104f7610680565b5b601f19601f8301169050602081019050919050565b600081519050919050565b600082825260208201905092915050565b60006105348261053b565b9050919050565b600073ffffffffffffffffffffffffffffffffffffffff82169050919050565b6000819050919050565b82818337600083830152505050565b60005b83811015610592578082015181840152602081019050610577565b838111156105a1576000848401525b50505050565b600060028204905060018216806105bf57607f821691505b602082108114156105d3576105d2610651565b5b50919050565b60006105e48261055b565b91507fffffffffffffffffffffffffffffffffffffffffffffffffffffffffffffffff82141561061757610616610622565b5b600182019050919050565b7f4e487b7100000000000000000000000000000000000000000000000000000000600052601160045260246000fd5b7f4e487b7100000000000000000000000000000000000000000000000000000000600052602260045260246000fd5b7f4e487b7100000000000000000000000000000000000000000000000000000000600052604160045260246000fd5b6000601f19601f8301169050919050565b6106c98161055b565b81146106d457600080fd5b5056fea264697066735822122099636953fdf3605fd4b9f0d087d9e13034ad49cad240f19dad8c45d7fc93e6c764736f6c63430008000033",
  "immutableReferences": {},
  "source": "// SPDX-License-Identifier: MIT\r\npragma solidity >=0.7.0 <0.9.0;\r\n\r\ncontract MedicalRecord {\r\n    struct Record {\r\n        string ipfsHash;\r\n        address owner;\r\n    }\r\n\r\n    mapping(uint256 => Record) public records;\r\n    uint256 public recordCount;\r\n\r\n    event RecordAdded(uint256 indexed id, string ipfsHash, address owner);\r\n\r\n    function addRecord(string memory _ipfsHash) public {\r\n        records[recordCount] = Record(_ipfsHash, msg.sender);\r\n        emit RecordAdded(recordCount, _ipfsHash, msg.sender);\r\n        recordCount++;\r\n    }\r\n}\r\n",
  "sourcePath": "C:\\Users\\HP\\Desktop\\Medical\\medical-dapp\\contracts\\MedicalRecord.sol",
  "compiler": {
    "name": "solc",
    "version": "0.8.0+commit.c7dfd78e.Emscripten.clang"
  },
  "schemaVersion": "3.4.16",
  "updatedAt": "2024-04-09T20:29:26.457Z",
  "networkType": "ethereum",
  "devdoc": {
    "kind": "dev",
    "methods": {},
    "version": 1
  },
  "userdoc": {
    "kind": "user",
    "methods": {},
    "version": 1
  }
}